{
  "address": "0x4157288d14A6C166177F8fd9c8256362858e7e7E",
  "abi": [
    {
      "inputs": [],
      "stateMutability": "nonpayable",
      "type": "constructor"
    },
    {
      "inputs": [],
      "name": "Lyxaxis__NoOwners",
      "type": "error"
    },
    {
      "inputs": [],
      "name": "Lyxaxis__NoRequiredSignatures",
      "type": "error"
    },
    {
      "anonymous": false,
      "inputs": [
        {
          "indexed": false,
          "internalType": "address",
          "name": "multisig",
          "type": "address"
        }
      ],
      "name": "CreatedMultisig",
      "type": "event"
    },
    {
      "inputs": [
        {
          "internalType": "bytes",
          "name": "profileMetadata",
          "type": "bytes"
        },
        {
          "internalType": "address[]",
          "name": "_owners",
          "type": "address[]"
        },
        {
          "internalType": "uint256",
          "name": "_signaturesRequired",
          "type": "uint256"
        }
      ],
      "name": "createWallet",
      "outputs": [
        {
          "internalType": "address",
          "name": "",
          "type": "address"
        }
      ],
      "stateMutability": "nonpayable",
      "type": "function"
    },
    {
      "inputs": [],
      "name": "getRegistry",
      "outputs": [
        {
          "internalType": "address",
          "name": "",
          "type": "address"
        }
      ],
      "stateMutability": "view",
      "type": "function"
    }
  ],
  "transactionHash": "0x374172fe9ef7efb4fae2efb89cad7f089a29fc3b1263cb725f90611768c3f218",
  "args": [],
  "numDeployments": 1,
  "solcInputHash": "2380d4ea9778469c82cb21caf36d237b",
  "bytecode": "0x60a0604052348015600f57600080fd5b5030604051601b906057565b6001600160a01b039091168152602001604051809103906000f0801580156046573d6000803e3d6000fd5b506001600160a01b03166080526064565b610822806151b183390190565b60805161512661008b60003960008181603d0152818160d1015261014401526151266000f3fe608060405234801561001057600080fd5b50600436106100365760003560e01c80635ab1bd531461003b578063b78ad35c14610079575b600080fd5b7f00000000000000000000000000000000000000000000000000000000000000005b6040516001600160a01b03909116815260200160405180910390f35b61005d610087366004610250565b6000816000036100aa5760405163db52ff4360e01b815260040160405180910390fd5b826100c857604051634ec8359f60e11b815260040160405180910390fd5b600086868686867f00000000000000000000000000000000000000000000000000000000000000006040516100fc906101f7565b61010b96959493929190610347565b604051809103906000f080158015610127573d6000803e3d6000fd5b5060405163e995f42d60e01b815290915081906001600160a01b037f0000000000000000000000000000000000000000000000000000000000000000169063e995f42d9061017d9084908a908a906004016103aa565b600060405180830381600087803b15801561019757600080fd5b505af11580156101ab573d6000803e3d6000fd5b50506040516001600160a01b03841681527f455ac47396b932bfce99e0b01652034b6a98726a48cfef1b16c1a38564ca32349250602001905060405180910390a1979650505050505050565b614d18806103d983390190565b60008083601f84011261021657600080fd5b50813567ffffffffffffffff81111561022e57600080fd5b6020830191508360208260051b850101111561024957600080fd5b9250929050565b60008060008060006060868803121561026857600080fd5b853567ffffffffffffffff81111561027f57600080fd5b8601601f8101881361029057600080fd5b803567ffffffffffffffff8111156102a757600080fd5b8860208284010111156102b957600080fd5b60209182019650945086013567ffffffffffffffff8111156102da57600080fd5b6102e688828901610204565b96999598509660400135949350505050565b81835260208301925060008160005b8481101561033d5781356001600160a01b03811680821461032757600080fd5b8752506020958601959190910190600101610307565b5093949350505050565b60808152856080820152858760a0830137600060a087830101526000601f19601f880116820160a083820301602084015261038660a0820187896102f8565b604084019590955250506001600160a01b0391909116606090910152949350505050565b6001600160a01b03841681526040602082018190526000906103cf90830184866102f8565b9594505050505056fe60c060405234801561001057600080fd5b50604051614d18380380614d1883398101604081905261002f9161035c565b60008281558351905b8181101561015757600085828151811061005457610054610439565b6020026020010151905060006001600160a01b0316816001600160a01b0316036100915760405163229e2c8d60e21b815260040160405180910390fd5b6001600160a01b0381163b156100ba5760405163d0ac5c9360e01b815260040160405180910390fd5b6001600160a01b03811660009081526003602052604090205460ff16156100f457604051631ddcecf960e01b815260040160405180910390fd5b6001600160a01b038116600081815260036020908152604091829020805460ff1916600190811790915591519182527ffe545f48304051c4029eb2da9927daa59da0414b4b084fdceaf2955b609b899e910160405180910390a250600101610038565b5060028190556001600160a01b038216608052604051309061017890610232565b6001600160a01b039091168152602001604051809103906000f0801580156101a4573d6000803e3d6000fd5b506001600160a01b031660a0819052604051631fc8da4360e21b8152637f23690c906101f6907f5ef83ad9559033e6e941db7d7c495acdce616347d28e90c7ce47cbfcfcad3bc590899060040161044f565b600060405180830381600087803b15801561021057600080fd5b505af1158015610224573d6000803e3d6000fd5b505050505050505050610489565b6134a98061186f83390190565b634e487b7160e01b600052604160045260246000fd5b604051601f8201601f191681016001600160401b038111828210171561027d5761027d61023f565b604052919050565b60005b838110156102a0578181015183820152602001610288565b50506000910152565b6001600160a01b03811681146102be57600080fd5b50565b600082601f8301126102d257600080fd5b81516001600160401b038111156102eb576102eb61023f565b8060051b6102fb60208201610255565b9182526020818501810192908101908684111561031757600080fd5b6020860192505b83831015610342578251610331816102a9565b82526020928301929091019061031e565b9695505050505050565b8051610357816102a9565b919050565b6000806000806080858703121561037257600080fd5b84516001600160401b0381111561038857600080fd5b8501601f8101871361039957600080fd5b80516001600160401b038111156103b2576103b261023f565b6103c5601f8201601f1916602001610255565b8181528860208385010111156103da57600080fd5b6103eb826020830160208601610285565b60208801519096509150506001600160401b0381111561040a57600080fd5b610416878288016102c1565b6040870151909450925061042e90506060860161034c565b905092959194509250565b634e487b7160e01b600052603260045260246000fd5b8281526040602082015260008251806040840152610474816060850160208701610285565b601f01601f1916919091016060019392505050565b60805160a0516113916104de6000396000818160cf015281816101b2015281816103c20152818161048a015281816106af0152818161099a0152610a99015260008181610608015261085d01526113916000f3fe6080604052600436106100c65760003560e01c806365af1bed1161007f578063ce757d2911610059578063ce757d29146102d0578063d1fbffa0146102e6578063d3fc45d314610313578063de928f141461035557600080fd5b806365af1bed1461028457806376d30232146102a4578063affed0e0146102ba57600080fd5b806319045a251461016657806320349d41146101a35780632f54bf6e146101d65780633034a742146102165780633bad542614610236578063545a4a3c1461025657600080fd5b366101615760007f00000000000000000000000000000000000000000000000000000000000000006001600160a01b03163460405160006040518083038185875af1925050503d8060008114610138576040519150601f19603f3d011682016040523d82523d6000602084013e61013d565b606091505b505090508061015f576040516314792b9160e01b815260040160405180910390fd5b005b600080fd5b34801561017257600080fd5b50610186610181366004610e40565b610375565b6040516001600160a01b0390911681526020015b60405180910390f35b3480156101af57600080fd5b507f0000000000000000000000000000000000000000000000000000000000000000610186565b3480156101e257600080fd5b506102066101f1366004610e9c565b60036020526000908152604090205460ff1681565b604051901515815260200161019a565b34801561022257600080fd5b5061015f610231366004610ec0565b6103b7565b34801561024257600080fd5b5061015f610251366004610ed9565b61047f565b34801561026257600080fd5b50610276610271366004610f05565b610669565b60405190815260200161019a565b34801561029057600080fd5b5061015f61029f366004610ed9565b6106a4565b3480156102b057600080fd5b5061027660025481565b3480156102c657600080fd5b5061027660015481565b3480156102dc57600080fd5b5061027660005481565b3480156102f257600080fd5b50610306610301366004610f68565b61088c565b60405161019a91906110d2565b34801561031f57600080fd5b5061033c61032e366004610e40565b63d3fc45d360e01b92915050565b6040516001600160e01b0319909116815260200161019a565b34801561036157600080fd5b5061033c6103703660046110e5565b610a83565b7f19457468657265756d205369676e6564204d6573736167653a0a3332000000006000908152601c839052603c81206103ae9083610afc565b90505b92915050565b336001600160a01b037f00000000000000000000000000000000000000000000000000000000000000001614610400576040516303c2350960e51b815260040160405180910390fd5b60008111610421576040516303526a9d60e11b815260040160405180910390fd5b600254811115610444576040516302a602d760e01b815260040160405180910390fd5b60008190556040518181527f94338e9fdc5c1ef28d73e95241665441d047bce58d3449489d6155b77293f4fb9060200160405180910390a150565b336001600160a01b037f000000000000000000000000000000000000000000000000000000000000000016146104c8576040516303c2350960e51b815260040160405180910390fd5b6001600160a01b03821660009081526003602052604090205460ff1661050157604051631b753fdf60e31b815260040160405180910390fd5b6001600254116105245760405163376d8ef560e01b815260040160405180910390fd5b60008111610545576040516303526a9d60e11b815260040160405180910390fd5b6001600254610554919061117a565b811115610574576040516302a602d760e01b815260040160405180910390fd5b6001600160a01b0382166000908152600360205260408120805460ff1916905581815560028054916105a58361118d565b9091555050604051600081526001600160a01b038316907ffe545f48304051c4029eb2da9927daa59da0414b4b084fdceaf2955b609b899e9060200160405180910390a2604051630e316ab760e01b81526001600160a01b0383811660048301527f00000000000000000000000000000000000000000000000000000000000000001690630e316ab7906024015b600060405180830381600087803b15801561064d57600080fd5b505af1158015610661573d6000803e3d6000fd5b505050505050565b600030858585856040516020016106849594939291906111a4565b604051602081830303815290604052805190602001209050949350505050565b336001600160a01b037f000000000000000000000000000000000000000000000000000000000000000016146106ed576040516303c2350960e51b815260040160405180910390fd5b6001600160a01b0382166107145760405163229e2c8d60e21b815260040160405180910390fd5b6001600160a01b0382163b1561073d5760405163d0ac5c9360e01b815260040160405180910390fd5b6001600160a01b03821660009081526003602052604090205460ff161561077757604051631ddcecf960e01b815260040160405180910390fd5b60008111610798576040516303526a9d60e11b815260040160405180910390fd5b6002546107a6906001611203565b8111156107c6576040516302a602d760e01b815260040160405180910390fd5b6001600160a01b0382166000908152600360205260408120805460ff1916600117905581815560028054916107fa83611216565b9091555050604051600181526001600160a01b038316907ffe545f48304051c4029eb2da9927daa59da0414b4b084fdceaf2955b609b899e9060200160405180910390a26040516375896b0f60e11b81526001600160a01b0383811660048301527f0000000000000000000000000000000000000000000000000000000000000000169063eb12d61e90602401610633565b6060600061089e600154878787610669565b6001805491925060006108b083611216565b909155505082516000908190815b8181101561095c5760006108eb868984815181106108de576108de61122f565b6020026020010151610375565b9050836001600160a01b0316816001600160a01b03161161091f576040516301c2674d60e21b815260040160405180910390fd5b6001600160a01b038116600090815260036020526040902054909350839060ff1615610953578461094f81611216565b9550505b506001016108be565b5060005483101561098057604051639993d76960e01b815260040160405180910390fd5b604051632260147f60e11b81526000906001600160a01b037f000000000000000000000000000000000000000000000000000000000000000016906344c028fe906109d59084908e908e908e90600401611245565b6000604051808303816000875af11580156109f4573d6000803e3d6000fd5b505050506040513d6000823e601f3d908101601f19168201604052610a1c919081019061127c565b9050336001600160a01b03167f9053e9ec105157fac8c9308d63e6b22be5f50fe915a3e567419b624311a02d748b8b8b60018054610a5a919061117a565b8a87604051610a6e969594939291906112f3565b60405180910390a29998505050505050505050565b60006001600160a01b038416301480610acd57507f00000000000000000000000000000000000000000000000000000000000000006001600160a01b0316846001600160a01b0316145b610aea576040516304b22b8d60e51b815260040160405180910390fd5b5063de928f0160e01b95945050505050565b6000806000610b0b8585610b20565b91509150610b1881610b65565b509392505050565b6000808251604103610b565760208301516040840151606085015160001a610b4a87828585610cb7565b94509450505050610b5e565b506000905060025b9250929050565b6000816004811115610b7957610b79611345565b03610b815750565b6001816004811115610b9557610b95611345565b03610be75760405162461bcd60e51b815260206004820152601860248201527f45434453413a20696e76616c6964207369676e6174757265000000000000000060448201526064015b60405180910390fd5b6002816004811115610bfb57610bfb611345565b03610c485760405162461bcd60e51b815260206004820152601f60248201527f45434453413a20696e76616c6964207369676e6174757265206c656e677468006044820152606401610bde565b6003816004811115610c5c57610c5c611345565b03610cb45760405162461bcd60e51b815260206004820152602260248201527f45434453413a20696e76616c6964207369676e6174757265202773272076616c604482015261756560f01b6064820152608401610bde565b50565b6000807f7fffffffffffffffffffffffffffffff5d576e7357a4501ddfe92f46681b20a0831115610cee5750600090506003610d72565b6040805160008082526020820180845289905260ff881692820192909252606081018690526080810185905260019060a0016020604051602081039080840390855afa158015610d42573d6000803e3d6000fd5b5050604051601f1901519150506001600160a01b038116610d6b57600060019250925050610d72565b9150600090505b94509492505050565b634e487b7160e01b600052604160045260246000fd5b604051601f8201601f1916810167ffffffffffffffff81118282101715610dba57610dba610d7b565b604052919050565b600067ffffffffffffffff821115610ddc57610ddc610d7b565b50601f01601f191660200190565b600082601f830112610dfb57600080fd5b8135610e0e610e0982610dc2565b610d91565b818152846020838601011115610e2357600080fd5b816020850160208301376000918101602001919091529392505050565b60008060408385031215610e5357600080fd5b82359150602083013567ffffffffffffffff811115610e7157600080fd5b610e7d85828601610dea565b9150509250929050565b6001600160a01b0381168114610cb457600080fd5b600060208284031215610eae57600080fd5b8135610eb981610e87565b9392505050565b600060208284031215610ed257600080fd5b5035919050565b60008060408385031215610eec57600080fd5b8235610ef781610e87565b946020939093013593505050565b60008060008060808587031215610f1b57600080fd5b843593506020850135610f2d81610e87565b925060408501359150606085013567ffffffffffffffff811115610f5057600080fd5b610f5c87828801610dea565b91505092959194509250565b60008060008060808587031215610f7e57600080fd5b8435610f8981610e87565b935060208501359250604085013567ffffffffffffffff811115610fac57600080fd5b610fb887828801610dea565b925050606085013567ffffffffffffffff811115610fd557600080fd5b8501601f81018713610fe657600080fd5b803567ffffffffffffffff81111561100057611000610d7b565b8060051b61101060208201610d91565b9182526020818401810192908101908a84111561102c57600080fd5b6020850192505b8383101561107357823567ffffffffffffffff81111561105257600080fd5b6110618c602083890101610dea565b83525060209283019290910190611033565b979a9699509497505050505050565b60005b8381101561109d578181015183820152602001611085565b50506000910152565b600081518084526110be816020860160208601611082565b601f01601f19169290920160200192915050565b6020815260006103ae60208301846110a6565b600080600080600060a086880312156110fd57600080fd5b853561110881610e87565b9450602086013561111881610e87565b9350604086013561112881610e87565b925060608601359150608086013567ffffffffffffffff81111561114b57600080fd5b61115788828901610dea565b9150509295509295909350565b634e487b7160e01b600052601160045260246000fd5b818103818111156103b1576103b1611164565b60008161119c5761119c611164565b506000190190565b6bffffffffffffffffffffffff198660601b1681528460148201526bffffffffffffffffffffffff198460601b166034820152826048820152600082516111f2816068850160208701611082565b919091016068019695505050505050565b808201808211156103b1576103b1611164565b60006001820161122857611228611164565b5060010190565b634e487b7160e01b600052603260045260246000fd5b84815260018060a01b038416602082015282604082015260806060820152600061127260808301846110a6565b9695505050505050565b60006020828403121561128e57600080fd5b815167ffffffffffffffff8111156112a557600080fd5b8201601f810184136112b657600080fd5b80516112c4610e0982610dc2565b8181528560208385010111156112d957600080fd5b6112ea826020830160208601611082565b95945050505050565b60018060a01b038716815285602082015260c06040820152600061131a60c08301876110a6565b85606084015284608084015282810360a084015261133881856110a6565b9998505050505050505050565b634e487b7160e01b600052602160045260246000fdfea2646970667358221220002af3231131e368efdd2b938927835dc41081dde2a8d766a90d7cf44f3946c464736f6c634300081d003360806040526040516134a93803806134a983398101604081905261002291610123565b34156100a7577f9c4705229491d365fb5434052e12a386d6771d976bea61070a8c694e8affea3d60001b34336001600160a01b03167f9c3ba68eb5742b8e3961aea0afc7371a71bf433c8a67a831803b64c064a178c260405161009e906040808252600090820181905260606020830181905282015260800190565b60405180910390a45b6100b0816100b6565b50610153565b6000546001600160a01b0382811691161461012057600080546040516001600160a01b03808516939216917f8be0079c531659141344cd1fd0a4f28419497f9722a3daafe3b4186f6b6457e091a3600080546001600160a01b0319166001600160a01b0383161790555b50565b60006020828403121561013557600080fd5b81516001600160a01b038116811461014c57600080fd5b9392505050565b613347806101626000396000f3fe60806040526004361061010d5760003560e01c806379ba509711610095578063dedff9c611610064578063dedff9c614610380578063e30c3978146103a0578063ead3fbdf146101da578063f2fde38b146103be578063ffa1ad74146103de57610146565b806379ba5097146103135780637f23690c146103285780638da5cb5b1461033b578063979024211461036d57610146565b806344c028fe116100dc57806344c028fe1461028b57806354f6127f146102ab5780636963d438146102cb5780636bb56a14146102eb578063715018a6146102fe57610146565b806301bfba61146101da57806301ffc9a7146102025780631626ba7e14610232578063318584521461026b57610146565b36610146573415610144576101426000805160206132f283398151915260001b60405180602001604052806000815250610410565b505b005b600036606060048210156101c25734156101ad576101ab6000805160206132f283398151915260001b84848080601f01602080910402602001604051908101604052809392919081815260200183838082843760009201919091525061041092505050565b505b506040805160208101909152600081526101cf565b6101cc838361069d565b90505b915050805190602001f35b3480156101e657600080fd5b506101ef60c881565b6040519081526020015b60405180910390f35b34801561020e57600080fd5b5061022261021d366004612850565b61084e565b60405190151581526020016101f9565b34801561023e57600080fd5b5061025261024d366004612930565b6108ee565b6040516001600160e01b031990911681526020016101f9565b61027e610279366004612a90565b610aa0565b6040516101f99190612bfc565b61029e610299366004612c61565b610b88565b6040516101f99190612cb5565b3480156102b757600080fd5b5061029e6102c6366004612cc8565b610c47565b3480156102d757600080fd5b5061027e6102e6366004612ce1565b610c52565b61029e6102f9366004612930565b610410565b34801561030a57600080fd5b50610144610dad565b34801561031f57600080fd5b50610144610efa565b610144610336366004612930565b611067565b34801561034757600080fd5b506000546001600160a01b03165b6040516001600160a01b0390911681526020016101f9565b61014461037b366004612d56565b611126565b34801561038c57600080fd5b5061027e61039b366004612db3565b6112a3565b3480156103ac57600080fd5b506003546001600160a01b0316610355565b3480156103ca57600080fd5b506101446103d9366004612de7565b61134d565b3480156103ea57600080fd5b5061029e60405180604001604052806006815260200165302e31352e3160d01b81525081565b6060341580159061042f57506000805160206132f28339815191528314155b15610488576104866000805160206132f283398151915260001b6000368080601f01602080910402602001604051908101604052809392919081815260200183838082843760009201919091525061041092505050565b505b60006104b37f0cfc51aec37c55a4d0b1a65c6255c4bf2fbdf6277f3cc0730c45b828b6db8b476114f9565b9050606060148251106105645760006104cb83612e02565b60601c90506104e181635122dded60e11b61159b565b1561056257604051635122dded60e11b81526001600160a01b0382169063a245bbda9061051890339034908b908b90600401612e46565b6000604051808303816000875af1158015610537573d6000803e3d6000fd5b505050506040513d6000823e601f3d908101601f1916820160405261055f9190810190612e73565b91505b505b600061057d690cfc51aec37c55a4d0b160b01b87611624565b9050600061058a826114f9565b90506060601482511061063b5760006105a283612e02565b60601c90506105b881635122dded60e11b61159b565b1561063957604051635122dded60e11b81526001600160a01b0382169063a245bbda906105ef90339034908e908e90600401612e46565b6000604051808303816000875af115801561060e573d6000803e3d6000fd5b505050506040513d6000823e601f3d908101601f191682016040526106369190810190612e73565b91505b505b838160405160200161064e929190612ee0565b60405160208183030381529060405295508734336001600160a01b03166000805160206132d28339815191528a8a60405161068a929190612ee0565b60405180910390a4505050505092915050565b60606000806106b76000356001600160e01b031916611670565b91509150346000141580156106ca575080155b15610722576107206000805160206132f283398151915260001b86868080601f01602080910402602001604051908101604052809392919081815260200183838082843760009201919091525061041092505050565b505b6000356001600160e01b03191615801561074357506001600160a01b038216155b15610761576040518060200160405280600081525092505050610848565b6001600160a01b03821661079b5760405163bb370b2b60e01b81526001600160e01b03196000351660048201526024015b60405180910390fd5b600080836001600160a01b0316836107b45760006107b6565b345b888833346040516020016107cd9493929190612f05565b60408051601f19818403018152908290526107e791612f30565b60006040518083038185875af1925050503d8060008114610824576040519150601f19603f3d011682016040523d82523d6000602084013e610829565b606091505b5091509150811561083f57935061084892505050565b80518060208301fd5b92915050565b60006001600160e01b03198216630b135d3f60e11b148061087f57506001600160e01b031982166324871b3d60e01b145b8061089a57506001600160e01b03198216631aed5a8560e21b145b806108b557506001600160e01b031982166394be599960e01b145b806108d057506001600160e01b03198216631a0eb6a560e01b145b806108df57506108df82611720565b80610848575061084882611745565b6000806109036000546001600160a01b031690565b90506001600160a01b0381163b15610a2057600080826001600160a01b0316631626ba7e60e01b878760405160240161093d929190612f4c565b60408051601f198184030181529181526020820180516001600160e01b03166001600160e01b031990941693909317909252905161097b9190612f30565b600060405180830381855afa9150503d80600081146109b6576040519150601f19603f3d011682016040523d82523d6000602084013e6109bb565b606091505b509150915060008280156109d0575081516020145b80156109f757508151630b135d3f60e11b906109f59084016020908101908501612f65565b145b905080610a0c576001600160e01b0319610a15565b630b135d3f60e11b5b945050505050610848565b600080610a2d8686611783565b90925090506000816004811115610a4657610a46612f7e565b14610a5f57506001600160e01b03199250610848915050565b826001600160a01b0316826001600160a01b031614610a86576001600160e01b0319610a8f565b630b135d3f60e11b5b9350505050610848565b5092915050565b60603415610b07576040516001600160e01b03196000351660208201526000805160206132f283398151915290349033906000805160206132d28339815191529060240160408051601f1981840301815290829052610afe91612f94565b60405180910390a45b6000546001600160a01b031633819003610b2f57610b27868686866117c8565b915050610b80565b6000610b3a82611925565b90506000610b4a888888886117c8565b90508115610b7b57610b7b8382604051602001610b679190612bfc565b604051602081830303815290604052611a75565b925050505b949350505050565b60603415610bef576040516001600160e01b03196000351660208201526000805160206132f283398151915290349033906000805160206132d28339815191529060240160408051601f1981840301815290829052610be691612f94565b60405180910390a45b6000546001600160a01b031633819003610c0f57610b2786868686611b92565b6000610c1a82611925565b90506000610c2a88888888611b92565b90508115610b7b57610b7b8382604051602001610b679190612cb5565b6060610848826114f9565b6060816001600160401b03811115610c6c57610c6c61286d565b604051908082528060200260200182016040528015610c9f57816020015b6060815260200190600190039081610c8a5790505b50905060005b82811015610a995760008030868685818110610cc357610cc3612fbe565b9050602002810190610cd59190612fd4565b604051610ce392919061301a565b600060405180830381855af49150503d8060008114610d1e576040519150601f19603f3d011682016040523d82523d6000602084013e610d23565b606091505b509150915081610d8557805115610d3d5780518082602001fd5b60405162461bcd60e51b815260206004820152601960248201527f4c5350303a20626174636843616c6c73207265766572746564000000000000006044820152606401610792565b80848481518110610d9857610d98612fbe565b60209081029190910101525050600101610ca5565b6000546001600160a01b031633819003610e50576000546001600160a01b0316610dd5611c9d565b6000546001600160a01b0316610e4c57604080516001600160a01b0384166020820152600091810191909152610e4c907fa4e59c931d14f7c8a7a35027f92ee40b5f2886b9fdcdb78f30bc5ecce5a2f814906060015b60408051601f198184030181529190526001600160a01b0384169190611d90565b5050565b6000610e5b82611925565b90506000610e716000546001600160a01b031690565b9050610e7b611c9d565b6000546001600160a01b0316610ed557604080516001600160a01b0385166020820152600091810191909152610ed5907fa4e59c931d14f7c8a7a35027f92ee40b5f2886b9fdcdb78f30bc5ecce5a2f81490606001610e2b565b8115610ef457610ef48360405180602001604052806000815250611a75565b50505b50565b600354600160a01b900460ff1615610f2557604051635758dd0760e01b815260040160405180910390fd5b600080546003546001600160a01b0391821692911690338214610f7057610f4b82611925565b9050610f5682611e24565b600380546001600160a01b03191690556000600255610f78565b610f78611e92565b604080516001600160a01b038086166020830152841691810191909152610fe0907fa4e59c931d14f7c8a7a35027f92ee40b5f2886b9fdcdb78f30bc5ecce5a2f814906060015b60408051601f198184030181529190526001600160a01b0386169190611d90565b604080516001600160a01b038086166020830152841691810191909152611048907fceca317f109c43507871523e82dc2a3cc64dfa18f12da0b6db14f6e23f995538906060015b60408051601f198184030181529190526001600160a01b0385169190611d90565b8015610ef457610ef48260405180602001604052806000815250611a75565b34156110cc576040516001600160e01b03196000351660208201526000805160206132f283398151915290349033906000805160206132d28339815191529060240160408051601f19818403018152908290526110c391612f94565b60405180910390a45b6000546001600160a01b0316338190036110ea57610ef48383611edf565b60006110f582611925565b90506111018484611edf565b8015611120576111208260405180602001604052806000815250611a75565b50505050565b341561118b576040516001600160e01b03196000351660208201526000805160206132f283398151915290349033906000805160206132d28339815191529060240160408051601f198184030181529082905261118291612f94565b60405180910390a45b80518251146111ad57604051633bcc897960e01b815260040160405180910390fd5b81516000036111cf576040516397da5f9560e01b815260040160405180910390fd5b6000546001600160a01b0316338190036112335760005b83518110156111205761122b84828151811061120457611204612fbe565b602002602001015184838151811061121e5761121e612fbe565b6020026020010151611edf565b6001016111e6565b600061123e82611925565b905060005b84518110156112835761127b85828151811061126157611261612fbe565b602002602001015185838151811061121e5761121e612fbe565b600101611243565b508015611120576111208260405180602001604052806000815250611a75565b606081516001600160401b038111156112be576112be61286d565b6040519080825280602002602001820160405280156112f157816020015b60608152602001906001900390816112dc5790505b50905060005b82518110156113475761132283828151811061131557611315612fbe565b60200260200101516114f9565b82828151811061133457611334612fbe565b60209081029190910101526001016112f7565b50919050565b6000546001600160a01b031633819003611419576003805460ff60a01b1916600160a01b17905561137d82611f34565b816001600160a01b0316816001600160a01b03167f38d16b8cac22d99fc7c124b9cd0de2d3fa1faef420bfe791d8c362d765e2270060405160405180910390a3604080516001600160a01b038084166020830152841691810191909152611408907fe17117c9d2665d1dbeb479ed8058bbebde3c50ac50e2e65619f60006caac692690606001611027565b6003805460ff60a01b191690555050565b600061142482611925565b6003805460ff60a01b1916600160a01b179055905061144283611f34565b826001600160a01b0316826001600160a01b03167f38d16b8cac22d99fc7c124b9cd0de2d3fa1faef420bfe791d8c362d765e2270060405160405180910390a3604080516001600160a01b0380851660208301528516918101919091526114cd907fe17117c9d2665d1dbeb479ed8058bbebde3c50ac50e2e65619f60006caac692690606001610fbf565b6003805460ff60a01b191690558015610ef457610ef48260405180602001604052806000815250611a75565b60008181526001602052604090208054606091906115169061302a565b80601f01602080910402602001604051908101604052809291908181526020018280546115429061302a565b801561158f5780601f106115645761010080835404028352916020019161158f565b820191906000526020600020905b81548152906001019060200180831161157257829003601f168201915b50505050509050919050565b604080516001600160e01b03198316602480830191909152825180830390910181526044909101909152602080820180516001600160e01b03166301ffc9a760e01b178152825160009392849283928392918391908a617530fa92503d9150600051905082801561160d575060208210155b80156116195750600081115b979650505050505050565b604080516001600160b01b0319841660208201526000602a82018190526001600160601b03198416602c83015291829101604051602081830303815290604052905080610b809061305e565b60008080611695696773c5a04a6d4300884b60b11b6001600160e01b03198616611624565b905060006116a2826114f9565b90506014815110156116bb575060009485945092505050565b805160150361170857806014815181106116d7576116d7612fbe565b01602001516001600160f81b031916600160f81b03611708576116f981612e02565b60601c95600195509350505050565b61171181612e02565b60601c95600095509350505050565b60006001600160e01b0319821663a918fa6b60e01b1480610848575061084882611f84565b6000806117586301ffc9a760e01b611670565b5090506001600160a01b0381166117725750600092915050565b61177c818461159b565b9392505050565b60008082516041036117b95760208301516040840151606085015160001a6117ad87828585611fa9565b945094505050506117c1565b506000905060025b9250929050565b6060835185511415806117e95750825184511415806117e957508151835114155b1561180757604051633ff55f4d60e01b815260040160405180910390fd5b84516000036118295760405163e9ad2b5f60e01b815260040160405180910390fd5b600085516001600160401b038111156118445761184461286d565b60405190808252806020026020018201604052801561187757816020015b60608152602001906001900390816118625790505b50905060005b865181101561191b576118f687828151811061189b5761189b612fbe565b60200260200101518783815181106118b5576118b5612fbe565b60200260200101518784815181106118cf576118cf612fbe565b60200260200101518785815181106118e9576118e9612fbe565b6020026020010151611b92565b82828151811061190857611908612fbe565b602090810291909101015260010161187d565b5095945050505050565b6000816001600160a01b03163b60000361195d57604051630c39230160e01b81526001600160a01b0383166004820152602401610792565b6040516337a4a3c560e21b81526001600160a01b0383169063de928f14906119949033903090829034906000903690600401613082565b6020604051808303816000875af19250505080156119cf575060408051601f3d908101601f191682019092526119cc918101906130dc565b60015b611a0e573d8080156119fd576040519150601f19603f3d011682016040523d82523d6000602084013e611a02565b606091505b5061134760008261206d565b6001600160e81b0319811662de928f60e81b14611a5157604051639d6741e360e01b8152600060048201526001600160e01b031982166024820152604401610792565b8060031a60f81b6001600160f81b031916600160f81b14915050919050565b919050565b816001600160a01b031663d3fc45d333303334600036604051602001611aa0969594939291906130f9565b60405160208183030381529060405280519060200120836040518363ffffffff1660e01b8152600401611ad4929190612f4c565b6020604051808303816000875af1925050508015611b0f575060408051601f3d908101601f19168201909252611b0c918101906130dc565b60015b611b4e573d808015611b3d576040519150601f19603f3d011682016040523d82523d6000602084013e611b42565b606091505b50610ef460018261206d565b6001600160e01b0319811663d3fc45d360e01b14610ef457604051639d6741e360e01b8152600160048201526001600160e01b031982166024820152604401610792565b606084611bab57611ba484848461209a565b9050610b80565b60018503611be5576001600160a01b03841615611bdb57604051631820c12560e11b815260040160405180910390fd5b611ba483836121c4565b60028503611c1f576001600160a01b03841615611c1557604051631820c12560e11b815260040160405180910390fd5b611ba483836122c0565b60038503611c50578215611c46576040516339795e3560e11b815260040160405180910390fd5b611ba484836123a5565b60048503611c81578215611c7757604051635ac8313560e01b815260040160405180910390fd5b611ba484836124a2565b604051631d60ecef60e21b815260048101869052602401610792565b6002544390600090611cb19060c890613165565b90506000611cc060c883613165565b905080831180611cd05750600254155b15611d18576002839055600380546001600160a01b03191690556040517f81b7f830f1f0084db6497c486cbe6974c86488dcc4e3738eab94ab6d6b1653e790600090a1505050565b81831015611d4357604051630d8404a160e11b81526004810183905260248101829052604401610792565b611d4d6000611e24565b60006002819055600380546001600160a01b03191690556040517fd1f66c3d2bc1993a86be5e3d33709d98f0442381befcedd29f578b9b2506b1ce9190a1505050565b611daa6001600160a01b038416631aed5a8560e21b61159b565b15610ef457604051631aed5a8560e21b81526001600160a01b03841690636bb56a1490611ddd9085908590600401612f4c565b6000604051808303816000875af1158015611dfc573d6000803e3d6000fd5b505050506040513d6000823e601f3d908101601f191682016040526111209190810190612e73565b6000546001600160a01b03828116911614610ef757600080546040516001600160a01b03808516939216917f8be0079c531659141344cd1fd0a4f28419497f9722a3daafe3b4186f6b6457e091a3600080546001600160a01b0383166001600160a01b031990911617905550565b6003546001600160a01b03163314611ebf576040516308a3c8a560e31b8152336004820152602401610792565b611ec833611e24565b600380546001600160a01b03191690556000600255565b6000828152600160205260409020611ef782826131c6565b50817fece574603820d07bc9b91f2a932baadf4628aabcb8afba49776529c14a6104b282604051611f289190612cb5565b60405180910390a25050565b306001600160a01b03821603611f5d57604051631c0a54df60e31b815260040160405180910390fd5b600380546001600160a01b0319166001600160a01b03929092169190911790556000600255565b60006001600160e01b031982166318a6a9a560e21b1480610848575061084882612553565b6000807f7fffffffffffffffffffffffffffffff5d576e7357a4501ddfe92f46681b20a0831115611fe05750600090506003612064565b6040805160008082526020820180845289905260ff881692820192909252606081018690526080810185905260019060a0016020604051602081039080840390855afa158015612034573d6000803e3d6000fd5b5050604051601f1901519150506001600160a01b03811661205d57600060019250925050612064565b9150600090505b94509492505050565b80511561207d5780518082602001fd5b604051638c6a8ae360e01b81528215156004820152602401610792565b6060824710156120c6576040516301bf351f60e31b815247600482015260248101849052604401610792565b6120cf82613284565b6001600160e01b031916846001600160a01b031660007f4810874456b8e6487bd861375cf6abd8e1c8bb5858c8ce36a86a04dabfac199e8660405161211691815260200190565b60405180910390a4600080856001600160a01b0316858560405161213a9190612f30565b60006040518083038185875af1925050503d8060008114612177576040519150601f19603f3d011682016040523d82523d6000602084013e61217c565b606091505b50915091506121ba82826040518060400160405280601681526020017522a9219b991aac1d102ab735b737bbb71022b93937b960511b815250612588565b9695505050505050565b6060824710156121f0576040516301bf351f60e31b815247600482015260248101849052604401610792565b81516000036122125760405163b81cd8d960e01b815260040160405180910390fd5b600082516020840185f090506001600160a01b03811661224557604051630b07489b60e01b815260040160405180910390fd5b6000801b816001600160a01b031660017fa1fb700aaee2ae4a2ff6f91ce7eba292f89c2f5488b8ec4c5c5c8150692595c38760405161228691815260200190565b60405180910390a46040516001600160601b0319606083901b16602082015260340160405160208183030381529060405291505092915050565b606081516000036122e45760405163b81cd8d960e01b815260040160405180910390fd5b60006122fd83602085516122f891906132be565b6125a1565b9050600061231a8460006020875161231591906132be565b6125ff565b9050600061232986848461270c565b905082816001600160a01b031660027fa1fb700aaee2ae4a2ff6f91ce7eba292f89c2f5488b8ec4c5c5c8150692595c38960405161236991815260200190565b60405180910390a46040516001600160601b0319606083901b166020820152603401604051602081830303815290604052935050505092915050565b60606123b082613284565b6001600160e01b031916836001600160a01b031660037f4810874456b8e6487bd861375cf6abd8e1c8bb5858c8ce36a86a04dabfac199e60006040516123f891815260200190565b60405180910390a4600080846001600160a01b03168460405161241b9190612f30565b600060405180830381855afa9150503d8060008114612456576040519150601f19603f3d011682016040523d82523d6000602084013e61245b565b606091505b509150915061249982826040518060400160405280601681526020017522a9219b991aac1d102ab735b737bbb71022b93937b960511b815250612588565b95945050505050565b60606124ad82613284565b6001600160e01b031916836001600160a01b031660047f4810874456b8e6487bd861375cf6abd8e1c8bb5858c8ce36a86a04dabfac199e60006040516124f591815260200190565b60405180910390a4600080846001600160a01b0316846040516125189190612f30565b600060405180830381855af49150503d8060008114612456576040519150601f19603f3d011682016040523d82523d6000602084013e61245b565b60006001600160e01b03198216631d516b2b60e21b148061084857506301ffc9a760e01b6001600160e01b0319831614610848565b6060831561259757508161177c565b61177c8383612810565b60006125ae826020613165565b835110156125f65760405162461bcd60e51b8152602060048201526015602482015274746f427974657333325f6f75744f66426f756e647360581b6044820152606401610792565b50016020015190565b60608161260d81601f613165565b101561264c5760405162461bcd60e51b815260206004820152600e60248201526d736c6963655f6f766572666c6f7760901b6044820152606401610792565b6126568284613165565b8451101561269a5760405162461bcd60e51b8152602060048201526011602482015270736c6963655f6f75744f66426f756e647360781b6044820152606401610792565b6060821580156126b95760405191506000825260208201604052612703565b6040519150601f8416801560200281840101858101878315602002848b0101015b818310156126f25780518352602092830192016126da565b5050858452601f01601f1916604052505b50949350505050565b60008347101561275e5760405162461bcd60e51b815260206004820152601d60248201527f437265617465323a20696e73756666696369656e742062616c616e63650000006044820152606401610792565b81516000036127af5760405162461bcd60e51b815260206004820181905260248201527f437265617465323a2062797465636f6465206c656e677468206973207a65726f6044820152606401610792565b8282516020840186f590506001600160a01b03811661177c5760405162461bcd60e51b815260206004820152601960248201527f437265617465323a204661696c6564206f6e206465706c6f79000000000000006044820152606401610792565b8151156128205781518083602001fd5b8060405162461bcd60e51b81526004016107929190612cb5565b6001600160e01b031981168114610ef757600080fd5b60006020828403121561286257600080fd5b813561177c8161283a565b634e487b7160e01b600052604160045260246000fd5b604051601f8201601f191681016001600160401b03811182821017156128ab576128ab61286d565b604052919050565b60006001600160401b038211156128cc576128cc61286d565b50601f01601f191660200190565b600082601f8301126128eb57600080fd5b81356128fe6128f9826128b3565b612883565b81815284602083860101111561291357600080fd5b816020850160208301376000918101602001919091529392505050565b6000806040838503121561294357600080fd5b8235915060208301356001600160401b0381111561296057600080fd5b61296c858286016128da565b9150509250929050565b60006001600160401b0382111561298f5761298f61286d565b5060051b60200190565b600082601f8301126129aa57600080fd5b81356129b86128f982612976565b8082825260208201915060208360051b8601019250858311156129da57600080fd5b602085015b8381101561191b5780358352602092830192016129df565b80356001600160a01b0381168114611a7057600080fd5b600082601f830112612a1f57600080fd5b8135612a2d6128f982612976565b8082825260208201915060208360051b860101925085831115612a4f57600080fd5b602085015b8381101561191b5780356001600160401b03811115612a7257600080fd5b612a81886020838a01016128da565b84525060209283019201612a54565b60008060008060808587031215612aa657600080fd5b84356001600160401b03811115612abc57600080fd5b612ac887828801612999565b94505060208501356001600160401b03811115612ae457600080fd5b8501601f81018713612af557600080fd5b8035612b036128f982612976565b8082825260208201915060208360051b850101925089831115612b2557600080fd5b6020840193505b82841015612b4e57612b3d846129f7565b825260209384019390910190612b2c565b955050505060408501356001600160401b03811115612b6c57600080fd5b612b7887828801612999565b92505060608501356001600160401b03811115612b9457600080fd5b612ba087828801612a0e565b91505092959194509250565b60005b83811015612bc7578181015183820152602001612baf565b50506000910152565b60008151808452612be8816020860160208601612bac565b601f01601f19169290920160200192915050565b6000602082016020835280845180835260408501915060408160051b86010192506020860160005b82811015612c5557603f19878603018452612c40858351612bd0565b94506020938401939190910190600101612c24565b50929695505050505050565b60008060008060808587031215612c7757600080fd5b84359350612c87602086016129f7565b92506040850135915060608501356001600160401b03811115612ca957600080fd5b612ba0878288016128da565b60208152600061177c6020830184612bd0565b600060208284031215612cda57600080fd5b5035919050565b60008060208385031215612cf457600080fd5b82356001600160401b03811115612d0a57600080fd5b8301601f81018513612d1b57600080fd5b80356001600160401b03811115612d3157600080fd5b8560208260051b8401011115612d4657600080fd5b6020919091019590945092505050565b60008060408385031215612d6957600080fd5b82356001600160401b03811115612d7f57600080fd5b612d8b85828601612999565b92505060208301356001600160401b03811115612da757600080fd5b61296c85828601612a0e565b600060208284031215612dc557600080fd5b81356001600160401b03811115612ddb57600080fd5b610b8084828501612999565b600060208284031215612df957600080fd5b61177c826129f7565b805160208201516001600160601b0319811691906014821015612e3f576001600160601b03196001600160601b03198360140360031b1b82161692505b5050919050565b60018060a01b03851681528360208201528260408201526080606082015260006121ba6080830184612bd0565b600060208284031215612e8557600080fd5b81516001600160401b03811115612e9b57600080fd5b8201601f81018413612eac57600080fd5b8051612eba6128f9826128b3565b818152856020838501011115612ecf57600080fd5b612499826020830160208601612bac565b604081526000612ef36040830185612bd0565b82810360208401526124998185612bd0565b8385823760609290921b6001600160601b031916919092019081526014810191909152603401919050565b60008251612f42818460208701612bac565b9190910192915050565b828152604060208201526000610b806040830184612bd0565b600060208284031215612f7757600080fd5b5051919050565b634e487b7160e01b600052602160045260246000fd5b604081526000612fa76040830184612bd0565b828103602093840152600081529190910192915050565b634e487b7160e01b600052603260045260246000fd5b6000808335601e19843603018112612feb57600080fd5b8301803591506001600160401b0382111561300557600080fd5b6020019150368190038213156117c157600080fd5b8183823760009101908152919050565b600181811c9082168061303e57607f821691505b60208210810361134757634e487b7160e01b600052602260045260246000fd5b805160208083015191908110156113475760001960209190910360031b1b16919050565b6001600160a01b0387811682528681166020830152851660408201526060810184905260a0608082018190528101829052818360c0830137600081830160c090810191909152601f909201601f1916010195945050505050565b6000602082840312156130ee57600080fd5b815161177c8161283a565b6001600160601b03198760601b1681526001600160601b03198660601b1660148201526001600160601b03198560601b16602882015283603c8201528183605c83013760009101605c0190815295945050505050565b634e487b7160e01b600052601160045260246000fd5b808201808211156108485761084861314f565b601f821115610ef457806000526020600020601f840160051c8101602085101561319f5750805b601f840160051c820191505b818110156131bf57600081556001016131ab565b5050505050565b81516001600160401b038111156131df576131df61286d565b6131f3816131ed845461302a565b84613178565b6020601f821160018114613227576000831561320f5750848201515b600019600385901b1c1916600184901b1784556131bf565b600084815260208120601f198516915b828110156132575787850151825560209485019460019092019101613237565b50848210156132755786840151600019600387901b60f8161c191681555b50505050600190811b01905550565b805160208201516001600160e01b0319811691906004821015612e3f576001600160e01b031960049290920360031b82901b161692915050565b818103818111156108485761084861314f56fe9c3ba68eb5742b8e3961aea0afc7371a71bf433c8a67a831803b64c064a178c29c4705229491d365fb5434052e12a386d6771d976bea61070a8c694e8affea3da2646970667358221220c27fcaf04a6cc9c29fcc536a5f400f46197b9a097a9fa4d61ee767b9a80419c964736f6c634300081d0033a2646970667358221220740b651ea5b9798624a80414cc2334cb3155a3e8eca49ddf441836159e3a47a064736f6c634300081d003360a0604052348015600f57600080fd5b50604051610822380380610822833981016040819052602c91603c565b6001600160a01b0316608052606a565b600060208284031215604d57600080fd5b81516001600160a01b0381168114606357600080fd5b9392505050565b60805161079d610085600039600061022f015261079d6000f3fe608060405234801561001057600080fd5b50600436106100625760003560e01c80630e316ab714610067578063405ecbaf1461007c578063c54c5ece146100a5578063d23888a6146100e1578063e995f42d146100f4578063eb12d61e14610107575b600080fd5b61007a61007536600461062b565b61011a565b005b61008f61008a36600461062b565b6101d6565b60405161009c9190610646565b60405180910390f35b6100d16100b336600461062b565b6001600160a01b031660009081526002602052604090205460ff1690565b604051901515815260200161009c565b61008f6100ef36600461062b565b610200565b61007a610102366004610692565b610224565b61007a61011536600461062b565b61037b565b3360009081526002602052604090205460ff1661014a57604051636baded6d60e01b815260040160405180910390fd5b3360009081526002602052604090205460ff1661017a576040516399b3b1b360e01b815260040160405180910390fd5b3360009081526001602052604090206101939082610433565b6101b0576040516311c0b25760e11b815260040160405180910390fd5b6001600160a01b03811660009081526020819052604090206101d29033610433565b5050565b6001600160a01b03811660009081526020819052604090206060906101fa9061044f565b92915050565b6001600160a01b03811660009081526001602052604090206060906101fa9061044f565b336001600160a01b037f0000000000000000000000000000000000000000000000000000000000000000161461026d57604051636baded6d60e01b815260040160405180910390fd5b6001600160a01b03831660009081526002602052604090205460ff16156102a75760405163722960a960e11b815260040160405180910390fd5b6001600160a01b0383166000908152600260205260408120805460ff1916600117905581905b818110156103745761031d8484838181106102ea576102ea61071a565b90506020020160208101906102ff919061062b565b6001600160a01b03871660009081526001602052604090209061045c565b5061036b856000808787868181106103375761033761071a565b905060200201602081019061034c919061062b565b6001600160a01b0316815260208101919091526040016000209061045c565b506001016102cd565b5050505050565b3360009081526002602052604090205460ff166103ab57604051636baded6d60e01b815260040160405180910390fd5b3360009081526002602052604090205460ff166103db576040516399b3b1b360e01b815260040160405180910390fd5b3360009081526001602052604090206103f4908261045c565b61041157604051630452f8f760e01b815260040160405180910390fd5b6001600160a01b03811660009081526020819052604090206101d2903361045c565b6000610448836001600160a01b038416610471565b9392505050565b6060600061044883610564565b6000610448836001600160a01b0384166105c0565b6000818152600183016020526040812054801561055a576000610495600183610730565b85549091506000906104a990600190610730565b905081811461050e5760008660000182815481106104c9576104c961071a565b90600052602060002001549050808760000184815481106104ec576104ec61071a565b6000918252602080832090910192909255918252600188019052604090208390555b855486908061051f5761051f610751565b6001900381819060005260206000200160009055905585600101600086815260200190815260200160002060009055600193505050506101fa565b60009150506101fa565b6060816000018054806020026020016040519081016040528092919081815260200182805480156105b457602002820191906000526020600020905b8154815260200190600101908083116105a0575b50505050509050919050565b6000818152600183016020526040812054610607575081546001818101845560008481526020808220909301849055845484825282860190935260409020919091556101fa565b5060006101fa565b80356001600160a01b038116811461062657600080fd5b919050565b60006020828403121561063d57600080fd5b6104488261060f565b602080825282518282018190526000918401906040840190835b818110156106875783516001600160a01b0316835260209384019390920191600101610660565b509095945050505050565b6000806000604084860312156106a757600080fd5b6106b08461060f565b9250602084013567ffffffffffffffff8111156106cc57600080fd5b8401601f810186136106dd57600080fd5b803567ffffffffffffffff8111156106f457600080fd5b8660208260051b840101111561070957600080fd5b939660209190910195509293505050565b634e487b7160e01b600052603260045260246000fd5b818103818111156101fa57634e487b7160e01b600052601160045260246000fd5b634e487b7160e01b600052603160045260246000fdfea2646970667358221220c69c69a240016a3d02b176d5759ecc41251e1695a88a3294af10c020b18cbc7264736f6c634300081d0033",
  "devdoc": {
    "details": "Handles the creation of new multisig wallets and their registration in the MultiSigRegistry",
    "events": {
      "CreatedMultisig(address)": {
        "params": {
          "multisig": "The address of the newly created multisig wallet"
        }
      }
    },
    "kind": "dev",
    "methods": {
      "createWallet(bytes,address[],uint256)": {
        "params": {
          "_owners": "Array of initial owner addresses",
          "_signaturesRequired": "Number of signatures required for transactions",
          "profileMetadata": "The metadata for the Universal Profile"
        },
        "returns": {
          "_0": "The address of the newly created multisig wallet"
        }
      },
      "getRegistry()": {
        "returns": {
          "_0": "The address of the MultiSigRegistry"
        }
      }
    },
    "title": "Lyxaxis",
    "version": 1
  },
  "userdoc": {
    "events": {
      "CreatedMultisig(address)": {
        "notice": "Emitted when a new multisig wallet is created"
      }
    },
    "kind": "user",
    "methods": {
      "constructor": {
        "notice": "Creates a new MultiSigRegistry instance"
      },
      "createWallet(bytes,address[],uint256)": {
        "notice": "Creates a new multisig wallet"
      },
      "getRegistry()": {
        "notice": "Gets the address of the MultiSigRegistry"
      }
    },
    "notice": "Factory contract for creating and managing multisig wallets",
    "version": 1
  },
  "storageLayout": {
    "storage": [],
    "types": null
  }
}